:10000000803102288731F52F640080010131890B8E
:100010000528003470302000C9009130CA00C701A3
:10002000C801302823009E162000490884004A0891
:100030008500000823009A000030F3000030F20031
:100040000030F1003230F0008D315C25803101301C
:100050002000C9070030CA3D0130C7070030C83D45
:10006000490884004A0885000008F9004808803AD9
:10007000FA0080307A02031D3F2879084702031CEA
:1000800042284328122823009A010800EA30210060
:1000900099008C31E82480318C31EF2480318C310F
:1000A000F72480318031C420803180310A208031B2
:1000B0000030F3000030F2000330F100E830F000CF
:1000C0008D315C2580318D31872580310030F30002
:1000D0000030F2000330F100E830F0008D315C2593
:1000E00080310030F900FA000030FB00FC008E3156
:1000F000C12680310030F9009030FA008F3124277A
:1001000080310030F900FA000130FB000030FC00C3
:100110008E31C12680313930F9009030FA008F31AC
:10012000242780310030F900FA000330FB00003052
:10013000FC008E31C12680314F30F9009130FA0039
:100140008F31242780310630F9000030FA00033067
:10015000FB000030FC008E31C12680313130F900C7
:100160009130FA008F31242780310030F3000030C5
:10017000F2000330F100E830F0008D315C25803171
:100180008D310125803108005A302000C90091309E
:10019000CA00C701C801EA2823009E1620004908AA
:1001A00084004A088500000823009A000030F3000C
:1001B0000030F2000030F1003230F0008D315C256B
:1001C000803101302000C9070030CA3D0130C70727
:1001D0000030C83D490884004A0885000008F9003D
:1001E0004808803AFA0080307A02031DF92879081D
:1001F0004702031CFC28FD28CC28143023009A0059
:100200000030F3000030F2000030F1003230F00036
:100210008D315C258031043023009A000030F300DA
:100220000030F2000030F1003230F0008D315C25FA
:100230008031803023009A000030F3000030F2005B
:100240000030F1003230F0008D315C258031C0305B
:1002500023009A000030F3000030F2000030F1007B
:100260003230F0008D315C258031943023009A00CB
:100270000030F3000030F2000030F1003230F000C6
:100280008D315C258031D43023009A000030F3009A
:100290000030F2000030F1003230F0008D315C258A
:1002A000803123009A0108000030F3000030F20092
:1002B0000F30F100A030F0008D315C2581318031AC
:1002C00046208131640020000E138E14B001B1016C
:1002D000640020000E1E6D296E29342A70296400E6
:1002E00020000E1A742975296F290130A4000030EE
:1002F000A500342A2A082B04031D7F298029972969
:100300008D31872581318D310C2581310030F3000D
:100310000030F2002730F1001030F0008D315C2504
:10032000813101302000AA000030AB00402A2808AB
:100330002904031D9C299D29B4298D3187258131EC
:100340008D31342581310030F3000030F200273048
:10035000F1001030F0008D315C258131013020003A
:10036000A8000030A900402A26082704031DB92947
:10037000BA29E7298D31872581310130F900003014
:10038000FA000130FB000030FC008E31C1268131C3
:100390001430F9009030FA008F3124278131013078
:1003A000F9000030FA000230FB000030FC008E3112
:1003B000C12681312730F9009030FA008F3124278F
:1003C000813101302000A6000030A700402A8E1B9A
:1003D000EA29EB29EF290130A0000030A1008D317E
:1003E000872581310030F900FA000030FB00FC0065
:1003F0008E31C12681310030F9009030FA008F3102
:10040000242781310030F900FA000130FB00003070
:10041000FC008E31C12681313930F9009030FA006C
:100420008F31242781318C31E42481310F30200039
:1004300030063104031D1D2A1E2A1F2A342A640097
:100440002000901C242A252A2E2A0130BC070030C7
:10045000BD3D90108E168231502281318431E424CA
:10046000813120008E12162A0E1A372A382A402A85
:100470002403250403193D2A3E2A7A29402A6400D0
:1004800020000E1A442A452A4B2A24032504031966
:100490004A2A4B2A3F2AA401A50168298031022853
:1004A000200020082104031D562A572AA92BCA30F0
:1004B0003C06033003193D06031D5F2A602AD42A37
:1004C0000130BA070030BB3DBC01BD010C15003046
:1004D000F3000030F2000030F1006430F0008D31A4
:1004E0005C2582310E30F9000030FA000230FB004A
:1004F0000030FC008E31C126823120003B08803A5A
:10050000FD0080307D02031D872A0A303A0203185D
:100510008A2A8B2AA82A6730F9009130FA008F3195
:100520002427823120003B08FA003A08F9003F30C6
:10053000FB008D31C12582313F308F3188278231D8
:100540004630F9000030FA008F3124278231D42A56
:100550003C3020003A063B04031DAF2AB02AB82ADB
:100560005F30F9009130FA008F3124278231D42A8C
:100570005330F9009130FA008F3124278231200066
:100580003B08FA003A08F9003F30FB008D31C125E5
:1005900082313F308F31882782314530F900003079
:1005A000FA008F312427823120000C113C303A06AA
:1005B0003B04031DDC2ADD2A512B0130B807003033
:1005C000B93DBA01BB018C160030F3000030F200D7
:1005D0000030F1006430F0008D315C2582310B3049
:1005E000F9000030FA000230FB000030FC008E31D0
:1005F000C126823120003908803AFD0080307D021A
:10060000031D042B0A3038020318072B082B252B57
:100610006730F9009130FA008F31242782312000B1
:100620003908FA003808F9003F30FB008D31C12548
:1006300082313F308F31882782314630F9000030D7
:10064000FA008F3124278231512B3C3020003806AC
:100650003904031D2C2B2D2B352B5F30F9009130E5
:10066000FA008F3124278231512B5330F900913019
:10067000FA008F312427823120003908FA00380827
:10068000F9003F30FB008D31C12582313F308F3181
:10069000882782314530F9000030FA008F31242755
:1006A000823120008C123C3038063904031D592B4E
:1006B0005A2B8B2B0130B6070030B73DB801B9017A
:1006C0000A30F9000030FA000230FB000030FC0074
:1006D0008E31C12682310030F3000030F20000304C
:1006E000F1006430F0008D315C2582312000370844
:1006F000FA003608F9003F30FB008D31C125823108
:100700003F308F31882782314630F9000030FA00BF
:100710008F31242782310830200036063704031D2C
:10072000922B932BE32CBC01BD01BA01BB01B80194
:10073000B9010830B6000030B7000030F3000030D7
:10074000F2002730F1001030F0008D315C2582314D
:10075000E32C3C033D04031DAE2BAF2B232C0130B7
:10076000BA070030BB3DBC01BD010C150030F300E1
:100770000030F2000030F1006430F0008D315C2573
:1007800082310E30F9000030FA000230FB000030F8
:10079000FC008E31C126823120003B08803AFD00EA
:1007A00080307D02031DD62B0A303A020318D92B64
:1007B000DA2BF72B6730F9009130FA008F312427BC
:1007C000823120003B08FA003A08F9003F30FB0074
:1007D0008D31C12582313F308F31882782314630BB
:1007E000F9000030FA008F3124278231232C3C306D
:1007F00020003A063B04031DFE2BFF2B072C5F3025
:10080000F9009130FA008F3124278231232C5330A4
:10081000F9009130FA008F312427823120003B0803
:10082000FA003A08F9003F30FB008D31C1258231D2
:100830003F308F31882782314530F9000030FA008F
:100840008F312427823120000C113C303A063B04C2
:10085000031D2B2C2C2CA02C0130B8070030B93DE7
:10086000BA01BB018C160030F3000030F2000030FA
:10087000F1006430F0008D315C2582310B30F900DD
:100880000030FA000230FB000030FC008E31C1263F
:10089000823120003908803AFD0080307D02031D3E
:1008A000532C0A3038020318562C572C742C6730FE
:1008B000F9009130FA008F31242782312000390865
:1008C000FA003808F9003F30FB008D31C125823134
:1008D0003F308F31882782314630F9000030FA00EE
:1008E0008F3124278231A02C3C3020003806390477
:1008F000031D7B2C7C2C842C5F30F9009130FA0096
:100900008F3124278231A02C5330F9009130FA0026
:100910008F312427823120003908FA003808F90085
:100920003F30FB008D31C12582313F308F31882728
:1009300082314530F9000030FA008F3124278231AE
:1009400020008C123C3038063904031DA82CA92C39
:10095000DA2C0130B6070030B73DB801B9010A30D2
:10096000F9000030FA000230FB000030FC008E314C
:10097000C12682310030F3000030F2000030F10077
:100980006430F0008D315C25823120003708FA0098
:100990003608F9003F30FB008D31C12582313F30F0
:1009A0008F31882782314630F9000030FA008F31CC
:1009B000242782310830200036063704031DE12C3D
:1009C000E22CE32C932B0800200030083104031D97
:1009D000EA2CEB2C162D36083704031DF02CF12CD5
:1009E000162D38083904031DF62CF72C162D3A085D
:1009F0003B04031DFC2CFD2C162D0630F9000030A5
:100A0000FA000330FB000030FC008E31C126843137
:100A10009B30F9009030FA008F3124278431200078
:100A20008E140E130130B0000030B10030033104D9
:100A3000031D1B2D1C2D472D36033704031D212DAF
:100A4000222D472D38083904031D272D282D472D29
:100A50003A083B04031D2D2D2E2D472D0630F9009D
:100A60000030FA000330FB000030FC008E31C1265C
:100A70008431AA30F9009030FA008F312427843174
:100A800020008E100E130230B0000030B100023092
:100A900030063104031D4D2D4E2D7A2D36033704BB
:100AA000031D532D542D7A2D143038063904031D9F
:100AB0005A2D5B2D7A2D3A083B04031D602D612DC4
:100AC0007A2D0630F9000030FA000330FB000030C8
:100AD000FC008E31C1268431B930F9009030FA0023
:100AE0008F312427843120008E140E130330B00080
:100AF0000030B100033030063104031D802D812DFC
:100B0000AD2D36033704031D862D872DAD2D1E30E8
:100B100038063904031D8D2D8E2DAD2D3A083B046A
:100B2000031D932D942DAD2D0630F9000030FA00F1
:100B30000330FB000030FC008E31C1268431C83008
:100B4000F9009030FA008F312427843120008E1074
:100B50000E130430B0000030B10004303006310410
:100B6000031DB32DB42DE02D033036063704031DCD
:100B7000BA2DBB2DE02D38083904031DC02DC12D21
:100B8000E02D3A083B04031DC62DC72DE02D06308D
:100B9000F9000030FA000330FB000030FC008E3119
:100BA000C1268431D730F9009030FA008F312427E4
:100BB000843120008E140E130530B0000030B100D7
:100BC000053030063104031DE62DE72D142E0330C9
:100BD00036063704031DED2DEE2D142E1430380685
:100BE0003904031DF42DF52D142E3A083B04031D82
:100BF000FA2DFB2D142E0630F9000030FA000330D8
:100C0000FB000030FC008E31C1268431E630F90053
:100C10009030FA008F312427843120008E100E137B
:100C20000630B0000030B100063030063104031D3C
:100C30001A2E1B2E482E033036063704031D212E94
:100C4000222E482E1E3038063904031D282E292E48
:100C5000482E3A083B04031D2E2E2F2E482E063018
:100C6000F9000030FA000330FB000030FC008E3148
:100C7000C1268431F530F9009030FA008F312427F5
:100C8000843120008E140E130730B0000030B10004
:100C9000073030063104031D4E2E4F2E7B2E0430BC
:100CA00036063704031D552E562E7B2E3808390480
:100CB000031D5B2E5C2E7B2E3A083B04031D612E28
:100CC000622E7B2E0630F9000030FA000330FB0064
:100CD0000030FC008E31C12684310430F90091309F
:100CE000FA008F312427843120008E140E1308302F
:100CF000B0000030B100083030063104031D812EF1
:100D0000822EAE2E053036063704031D882E892E1E
:100D1000AE2E38083904031D8E2E8F2EAE2E3A08C3
:100D20003B04031D942E952EAE2E0630F9000030A4
:100D3000FA000330FB000030FC008E31C126843104
:100D40001330F9009130FA008F31242784312000CC
:100D50008E100E170930B0000030B1000930300697
:100D60003104031DB42EB52EE22E053036063704AD
:100D7000031DBB2EBC2EE22E143038063904031D91
:100D8000C22EC32EE22E3A083B04031DC82EC92EE4
:100D9000E22E0630F9000030FA000330FB0000308C
:100DA000FC008E31C12684312230F9009130FA00E6
:100DB0008F312427843120008E140E170A30B000A2
:100DC0000030B1000A3030063104031DE82EE92E50
:100DD000162F053036063704031DEF2EF02E162F82
:100DE0001E3038063904031DF62EF72E162F3A084A
:100DF0003B04031DFC2EFD2E162F0530F90000309C
:100E0000FA000330FB000030FC008E31C126843133
:100E10004B30F9009030FA008F31242784312000C4
:100E20008E100E170B30B0000030B1000B303006C2
:100E30003104031D1C2F1D2F492F073036063704A0
:100E4000031D232F242F492F38083904031D292F70
:100E50002A2F492F3A083B04031D2F2F302F492FEB
:100E60000530F9000030FA000330FB000030FC00D0
:100E70008E31C12684315B30F9009030FA008F3119
:100E80002427843120008E140E170C30B00000305F
:100E9000B1000C3030063104031D4F2F502F7D2F31
:100EA000073036063704031D562F572F7D2F143079
:100EB00038063904031D5D2F5E2F7D2F3A083B0451
:100EC000031D632F642F7D2F0530F9000030FA00D9
:100ED0000330FB000030FC008E31C12684316B30C2
:100EE000F9009030FA008F312427843120008E10D1
:100EF0000E170D30B0000030B1000D303006310457
:100F0000031D832F842FB12F073036063704031DAE
:100F10008A2F8B2FB12F1E3038063904031D912FD5
:100F2000922FB12F3A083B04031D972F982FB12F12
:100F30000530F9000030FA000330FB000030FC00FF
:100F40008E31C12684317B30F9009030FA008F3128
:100F50002427843120008E140E170E30B00000308C
:100F6000B1000E3030063104031DB72FB82FE42F27
:100F7000083036063704031DBE2FBF2FE42F380874
:100F80003904031DC42FC52FE42F3A083B04031D69
:100F9000CA2FCB2FE42F0530F9000030FA000330C0
:100FA000FB000030FC008E31C12684318B30F9000B
:100FB0009030FA008F312427843120008E140E13D4
:100FC0000F30B0000030B1003108803AFD008030B1
:100FD0007D02031DED2F10303002031CF02FF12F86
:100FE000F42F2000B001B10108002030840000304F
:100FF0008500273080310420873120008131542939
:1019C80020008E140E13080021008C01A0308D0019
:1019D80018308E00080022008C0123008E0112307E
:1019E8003D009F00080023001E129F159E179D179B
:1019F8009D121D1219309B000800013020009E0026
:101A08008F309C0021009014FA3020009B000800C1
:101A18000630F9000030FA000130FB000030FC000D
:101A28008E31C1268D314730F9009130FA008F315F
:101A380024278D310830F9000030FA000230FB000D
:101A48000030FC008E31C1268D315530F9009130BF
:101A5800FA008F3124278D3120008E100E130800D4
:101A68000530F9000030FA000130FB000030FC00BE
:101A78008E31C1268D313D30F9009130FA008F3119
:101A880024278D310830F9000030FA000230FB00BD
:101A98000030FC008E31C1268D315530F90091306F
:101AA800FA008F3124278D3120008E100E17080080
:101AB8000030F8000030F7000030F6000030F50084
:101AC800702D20000D170D130130F5070030F63D7D
:101AD8000030F73D0030F83D7808803AF40073088C
:101AE800803A7402031D822D72087702031D822D2D
:101AF80071087602031D822D70087502031C852D5E
:101B0800862D652D08006A302000C9009130CA0072
:101B1800C701C801AD2D23009E1620004908840086
:101B28004A088500000823009A000030F3000030BE
:101B3800F2000030F1003230F0008D315C258D313B
:101B480001302000C9070030CA3D0130C707003006
:101B5800C83D490884004A0885000008F90048087B
:101B6800803AFA0080307A02031DBC2D79084702BA
:101B7800031CBF2DC02D8F2D08007A082000C80037
:101B88007908C700C81FC92DCA2DCF2DF909FA0930
:101B9800F90A0319FA0A7B08860087010A30F0005F
:101BA8000030F1007A08F3007908F2008E310F2630
:101BB8008D317008303E81000130FC007C08FB0745
:101BC8000A30F0000030F1007A08F3007908F200DA
:101BD8008E3162268D317108FA007008F9007A0892
:101BE800803AFC0080307C02031DFC2D0130790214
:101BF8000318FF2D002ECF2D2000C81F042E052E00
:101C08000E2E7B08860087012D3081000130FC00F4
:101C18007C08FB070800F601F31F132E142E1B2E59
:101C2800F209F309F20A0319F30AF601F60AF11F99
:101C38001E2E1F2E242EF009F109F00A0319F10AAD
:101C4800700871040319292E2A2E532EF501F50A5E
:101C5800362E0130F035F10D890B2E2E0130F400AF
:101C68007408F507F11F392E3A2E2D2E71087302CC
:101C7800031D402E70087202031C432E442E482E6A
:101C88007008F2027108F33B0130F136F00C890B51
:101C9800492E0130F502031D522E532E3A2E760896
:101CA8000319572E582E5D2EF209F309F20A03196B
:101CB800F30A7308F1007208F0000800F601F11F3A
:101CC800662E672E6E2EF009F109F00A0319F10A43
:101CD800F601F60AF31F712E722E7B2EF209F30914
:101CE800F20A0319F30A0130F4007408F606F70142
:101CF800F801700871040319822E832EB22EF501A3
:101D0800F50A8F2E0130F035F10D890B872E013041
:101D1800F4007408F507F11F922E932E862E0130D9
:101D2800F735F80D890B942E71087302031D9E2E4A
:101D380070087202031CA12EA22EA72E7008F202B0
:101D48007108F33B77140130F136F00C890BA82E9B
:101D58000130F502031DB12EB22E932E7608031919
:101D6800B62EB72EBC2EF709F809F70A0319F80A98
:101D78007808F1007708F00008006D302000CB00EB
:101D88009130CC00C901CA01E72E23009E1620001D
:101D98004B0884004C088500000823009A00003096
:101DA800F3000030F2000030F1003230F0008D31E5
:101DB8005C258E3101302000CB070030CC3D01304E
:101DC800C9070030CA3D4B0884004C08850000084C
:101DD800C7004A08803AC80080304802031DF62E22
:101DE80047084902031CF92EFA2EC92E7908230048
:101DF8009A000030F3000030F2000030F100323079
:101E0800F0008D315C258E317B0823009A0000306C
:101E1800F3000030F2000030F1003230F0008D3174
:101E28005C258E3123009A010030F3000030F20067
:101E38000030F1006430F0008D315C258E310800EF
:101E48002000C701C80123009E1654309A000030B4
:101E5800F3000030F2000030F1001430F0008D3152
:101E68005C258F3101302000C7070030C83D480885
:101E7800803AFB0080307B02031D442F023047026A
:101E8800031C472F482F272F2000C701C801672FA1
:101E9800790884007A088500000823009A00003039
:101EA800F3000030F2000030F1003230F0008D31E4
:101EB8005C258F310130F9070030FA3D01302000F0
:101EC800C7070030C83D790884007A0885000008F3
:101ED800FB004808803AFC0080307C02031D762F06
:101EE8007B084702031C792F7A2F4C2F23009A0175
:101EF8000030F3000030F2000030F1003230F00022
:101F08008D315C258F3108002000D4005408CF00A3
:101F1800D001D1010730D2000030D300B12F20000A
:101F28004F0886008701010803199B2F9C2FAD2FAE
:101F38005008473E860087014F0884008501000845
:101F480081000130D0070030D13D0130F000700829
:101F5800CF07FF30D207FF30D33D5308803AF00057
:101F680080307002031DBA2F013052020318BD2FB2
:101F7800BE2F932F20005108803AF0008030700265
:101F8800031DC82F083050020318CB2FCC2FE52F84
:101F9800D72F20005008473E860087018101013075
:101FA800D0070030D13D20005108803AF000803041
:101FB8007002031DE12F08305002031CE42FE52FA7
:101FC800CD2F07302000D2000030D30054088600FF
:101FD80087015208473E84008501000881000130CE
:101FE800F0007008D407FF30D207FF30D33DD31F6D
:101FF800FE2FFF2FEA2F08004F34443443343A347D
:10200800463454343A34333435343934383420345B
:102018004234753472346E34203449346E340034AA
:102028005034693463346B34203453347034653439
:102038006534643420344F34663420345434653481
:102048007334743400344B34653479342034743444
:102058006F34203450346F347334203431342034A6
:102068006F347234203432340034543469346D346B
:1020780065347234203420342034203448344834D1
:102088003A344D344D343A345334533400345334A1
:10209800453443344F344E34443441345234593443
:1020A80020344F344E34203431343034003420342A
:1020B8004F344634463420342034203420342034FD
:1020C8002034203420342034313431340034533433
:1020D800453443344F344E34443441345234593403
:1020E80020344F344E3420343134323400342034E8
:1020F8004F344634463420342034203420342034BD
:102108002034203420342034313433340034203423
:1021180043344F344D3450344C34453454344534BE
:1021280020342034203420343134343400344F34D3
:1021380046344634203420342034203420342034AB
:102148002034203420342034303400345734483498
:1021580049345434453420344F344E3420342034F8
:10216800203420342034313400344F34463446345B
:1021780020342034203420342034203420342034B7
:1021880020342034323400345734483449345434F9
:10219800453420344F344E34203420342034203415
:1021A8002034333400344F34463446342034203419
:1021B8002034203420342034203420342034203477
:1021C8003434003457344834493454344534203492
:1021D8004F344E34203420342034203420343534E5
:1021E80000344F34463446342034203420342034EC
:1021F8002034203420342034203420343634003441
:102208004F344634463420342034203420342034AB
:1022180020342034203420342034373400345334EC
:10222800453443344F344E344434413452345934B1
:1022380020344F344E342034383400344F3446344C
:1022480046342034203420342034203420342034C0
:102258002034203420343934003450347234653416
:1022680073347334203453347434613472347434B2
:1022780000345334453443344F344E3444344134B9
:102288005234593400345034523449344D34413482
:102298005234593400344D346F34643465343A342C
:1022A800003454344534533454340034533454349F
:1022B8004334523400343A343034303400345434F3
:1022C8005234543400343A342034003443344C34D7
:0E22D800003454345034003443345334003452
:020000040001F9
:08000000FF3FFF3FFF3FFF3F00
:06000E00FC3FFF3FFF3F35
:00000001FF
